{
  "_format": "hh-sol-artifact-1",
  "contractName": "Exchange",
  "sourceName": "contracts/Exchange.sol",
  "abi": [
    {
      "anonymous": false,
      "inputs": [
        {
          "indexed": true,
          "internalType": "address",
          "name": "previousOwner",
          "type": "address"
        },
        {
          "indexed": true,
          "internalType": "address",
          "name": "newOwner",
          "type": "address"
        }
      ],
      "name": "OwnershipTransferred",
      "type": "event"
    },
    {
      "inputs": [
        {
          "internalType": "address",
          "name": "account",
          "type": "address"
        }
      ],
      "name": "addressToString",
      "outputs": [
        {
          "internalType": "string",
          "name": "",
          "type": "string"
        }
      ],
      "stateMutability": "pure",
      "type": "function"
    },
    {
      "inputs": [
        {
          "internalType": "bytes",
          "name": "data",
          "type": "bytes"
        }
      ],
      "name": "byteToString",
      "outputs": [
        {
          "internalType": "string",
          "name": "",
          "type": "string"
        }
      ],
      "stateMutability": "pure",
      "type": "function"
    },
    {
      "inputs": [
        {
          "components": [
            {
              "internalType": "enum LibOrder.TradeDir",
              "name": "dir",
              "type": "uint8"
            },
            {
              "internalType": "address",
              "name": "maker",
              "type": "address"
            },
            {
              "components": [
                {
                  "internalType": "enum LibAsset.SettleType",
                  "name": "settleType",
                  "type": "uint8"
                },
                {
                  "components": [
                    {
                      "components": [
                        {
                          "internalType": "enum LibAsset.AssetType",
                          "name": "baseType",
                          "type": "uint8"
                        },
                        {
                          "internalType": "uint256",
                          "name": "extraType",
                          "type": "uint256"
                        },
                        {
                          "internalType": "address",
                          "name": "contractAddr",
                          "type": "address"
                        }
                      ],
                      "internalType": "struct LibAsset.Code",
                      "name": "code",
                      "type": "tuple"
                    },
                    {
                      "internalType": "uint256",
                      "name": "value",
                      "type": "uint256"
                    }
                  ],
                  "internalType": "struct LibAsset.BaseAsset",
                  "name": "baseAsset",
                  "type": "tuple"
                },
                {
                  "internalType": "uint256",
                  "name": "extraValue",
                  "type": "uint256"
                }
              ],
              "internalType": "struct LibAsset.Asset",
              "name": "makerAsset",
              "type": "tuple"
            },
            {
              "internalType": "address",
              "name": "taker",
              "type": "address"
            },
            {
              "components": [
                {
                  "internalType": "enum LibAsset.SettleType",
                  "name": "settleType",
                  "type": "uint8"
                },
                {
                  "components": [
                    {
                      "components": [
                        {
                          "internalType": "enum LibAsset.AssetType",
                          "name": "baseType",
                          "type": "uint8"
                        },
                        {
                          "internalType": "uint256",
                          "name": "extraType",
                          "type": "uint256"
                        },
                        {
                          "internalType": "address",
                          "name": "contractAddr",
                          "type": "address"
                        }
                      ],
                      "internalType": "struct LibAsset.Code",
                      "name": "code",
                      "type": "tuple"
                    },
                    {
                      "internalType": "uint256",
                      "name": "value",
                      "type": "uint256"
                    }
                  ],
                  "internalType": "struct LibAsset.BaseAsset",
                  "name": "baseAsset",
                  "type": "tuple"
                },
                {
                  "internalType": "uint256",
                  "name": "extraValue",
                  "type": "uint256"
                }
              ],
              "internalType": "struct LibAsset.Asset",
              "name": "takerAsset",
              "type": "tuple"
            },
            {
              "internalType": "uint256",
              "name": "fee",
              "type": "uint256"
            },
            {
              "internalType": "address",
              "name": "feeRecipient",
              "type": "address"
            },
            {
              "internalType": "uint256",
              "name": "startTime",
              "type": "uint256"
            },
            {
              "internalType": "uint256",
              "name": "endTime",
              "type": "uint256"
            },
            {
              "internalType": "uint256",
              "name": "salt",
              "type": "uint256"
            }
          ],
          "internalType": "struct LibOrder.Order",
          "name": "order",
          "type": "tuple"
        }
      ],
      "name": "cancelSingle",
      "outputs": [],
      "stateMutability": "nonpayable",
      "type": "function"
    },
    {
      "inputs": [
        {
          "components": [
            {
              "internalType": "enum LibOrder.TradeDir",
              "name": "dir",
              "type": "uint8"
            },
            {
              "internalType": "address",
              "name": "maker",
              "type": "address"
            },
            {
              "components": [
                {
                  "internalType": "enum LibAsset.SettleType",
                  "name": "settleType",
                  "type": "uint8"
                },
                {
                  "components": [
                    {
                      "components": [
                        {
                          "internalType": "enum LibAsset.AssetType",
                          "name": "baseType",
                          "type": "uint8"
                        },
                        {
                          "internalType": "uint256",
                          "name": "extraType",
                          "type": "uint256"
                        },
                        {
                          "internalType": "address",
                          "name": "contractAddr",
                          "type": "address"
                        }
                      ],
                      "internalType": "struct LibAsset.Code",
                      "name": "code",
                      "type": "tuple"
                    },
                    {
                      "internalType": "uint256",
                      "name": "value",
                      "type": "uint256"
                    }
                  ],
                  "internalType": "struct LibAsset.BaseAsset",
                  "name": "baseAsset",
                  "type": "tuple"
                },
                {
                  "internalType": "uint256",
                  "name": "extraValue",
                  "type": "uint256"
                }
              ],
              "internalType": "struct LibAsset.Asset",
              "name": "makerAsset",
              "type": "tuple"
            },
            {
              "internalType": "address",
              "name": "taker",
              "type": "address"
            },
            {
              "components": [
                {
                  "internalType": "enum LibAsset.SettleType",
                  "name": "settleType",
                  "type": "uint8"
                },
                {
                  "components": [
                    {
                      "components": [
                        {
                          "internalType": "enum LibAsset.AssetType",
                          "name": "baseType",
                          "type": "uint8"
                        },
                        {
                          "internalType": "uint256",
                          "name": "extraType",
                          "type": "uint256"
                        },
                        {
                          "internalType": "address",
                          "name": "contractAddr",
                          "type": "address"
                        }
                      ],
                      "internalType": "struct LibAsset.Code",
                      "name": "code",
                      "type": "tuple"
                    },
                    {
                      "internalType": "uint256",
                      "name": "value",
                      "type": "uint256"
                    }
                  ],
                  "internalType": "struct LibAsset.BaseAsset",
                  "name": "baseAsset",
                  "type": "tuple"
                },
                {
                  "internalType": "uint256",
                  "name": "extraValue",
                  "type": "uint256"
                }
              ],
              "internalType": "struct LibAsset.Asset",
              "name": "takerAsset",
              "type": "tuple"
            },
            {
              "internalType": "uint256",
              "name": "fee",
              "type": "uint256"
            },
            {
              "internalType": "address",
              "name": "feeRecipient",
              "type": "address"
            },
            {
              "internalType": "uint256",
              "name": "startTime",
              "type": "uint256"
            },
            {
              "internalType": "uint256",
              "name": "endTime",
              "type": "uint256"
            },
            {
              "internalType": "uint256",
              "name": "salt",
              "type": "uint256"
            }
          ],
          "internalType": "struct LibOrder.Order",
          "name": "leftOrder",
          "type": "tuple"
        },
        {
          "internalType": "bytes",
          "name": "leftSign",
          "type": "bytes"
        },
        {
          "components": [
            {
              "internalType": "enum LibOrder.TradeDir",
              "name": "dir",
              "type": "uint8"
            },
            {
              "internalType": "address",
              "name": "maker",
              "type": "address"
            },
            {
              "components": [
                {
                  "internalType": "enum LibAsset.SettleType",
                  "name": "settleType",
                  "type": "uint8"
                },
                {
                  "components": [
                    {
                      "components": [
                        {
                          "internalType": "enum LibAsset.AssetType",
                          "name": "baseType",
                          "type": "uint8"
                        },
                        {
                          "internalType": "uint256",
                          "name": "extraType",
                          "type": "uint256"
                        },
                        {
                          "internalType": "address",
                          "name": "contractAddr",
                          "type": "address"
                        }
                      ],
                      "internalType": "struct LibAsset.Code",
                      "name": "code",
                      "type": "tuple"
                    },
                    {
                      "internalType": "uint256",
                      "name": "value",
                      "type": "uint256"
                    }
                  ],
                  "internalType": "struct LibAsset.BaseAsset",
                  "name": "baseAsset",
                  "type": "tuple"
                },
                {
                  "internalType": "uint256",
                  "name": "extraValue",
                  "type": "uint256"
                }
              ],
              "internalType": "struct LibAsset.Asset",
              "name": "makerAsset",
              "type": "tuple"
            },
            {
              "internalType": "address",
              "name": "taker",
              "type": "address"
            },
            {
              "components": [
                {
                  "internalType": "enum LibAsset.SettleType",
                  "name": "settleType",
                  "type": "uint8"
                },
                {
                  "components": [
                    {
                      "components": [
                        {
                          "internalType": "enum LibAsset.AssetType",
                          "name": "baseType",
                          "type": "uint8"
                        },
                        {
                          "internalType": "uint256",
                          "name": "extraType",
                          "type": "uint256"
                        },
                        {
                          "internalType": "address",
                          "name": "contractAddr",
                          "type": "address"
                        }
                      ],
                      "internalType": "struct LibAsset.Code",
                      "name": "code",
                      "type": "tuple"
                    },
                    {
                      "internalType": "uint256",
                      "name": "value",
                      "type": "uint256"
                    }
                  ],
                  "internalType": "struct LibAsset.BaseAsset",
                  "name": "baseAsset",
                  "type": "tuple"
                },
                {
                  "internalType": "uint256",
                  "name": "extraValue",
                  "type": "uint256"
                }
              ],
              "internalType": "struct LibAsset.Asset",
              "name": "takerAsset",
              "type": "tuple"
            },
            {
              "internalType": "uint256",
              "name": "fee",
              "type": "uint256"
            },
            {
              "internalType": "address",
              "name": "feeRecipient",
              "type": "address"
            },
            {
              "internalType": "uint256",
              "name": "startTime",
              "type": "uint256"
            },
            {
              "internalType": "uint256",
              "name": "endTime",
              "type": "uint256"
            },
            {
              "internalType": "uint256",
              "name": "salt",
              "type": "uint256"
            }
          ],
          "internalType": "struct LibOrder.Order",
          "name": "rightOrder",
          "type": "tuple"
        },
        {
          "internalType": "bytes",
          "name": "rightSign",
          "type": "bytes"
        }
      ],
      "name": "matchSingle",
      "outputs": [],
      "stateMutability": "payable",
      "type": "function"
    },
    {
      "inputs": [],
      "name": "owner",
      "outputs": [
        {
          "internalType": "address",
          "name": "",
          "type": "address"
        }
      ],
      "stateMutability": "view",
      "type": "function"
    },
    {
      "inputs": [],
      "name": "renounceOwnership",
      "outputs": [],
      "stateMutability": "nonpayable",
      "type": "function"
    },
    {
      "inputs": [
        {
          "internalType": "address",
          "name": "transferProxy",
          "type": "address"
        }
      ],
      "name": "setProxy",
      "outputs": [],
      "stateMutability": "nonpayable",
      "type": "function"
    },
    {
      "inputs": [
        {
          "internalType": "address",
          "name": "newOwner",
          "type": "address"
        }
      ],
      "name": "transferOwnership",
      "outputs": [],
      "stateMutability": "nonpayable",
      "type": "function"
    }
  ],
  "bytecode": "0x60806040523480156200001157600080fd5b5062000032620000266200003860201b60201c565b6200004060201b60201c565b62000104565b600033905090565b60008060009054906101000a900473ffffffffffffffffffffffffffffffffffffffff169050816000806101000a81548173ffffffffffffffffffffffffffffffffffffffff021916908373ffffffffffffffffffffffffffffffffffffffff1602179055508173ffffffffffffffffffffffffffffffffffffffff168173ffffffffffffffffffffffffffffffffffffffff167f8be0079c531659141344cd1fd0a4f28419497f9722a3daafe3b4186f6b6457e060405160405180910390a35050565b6135f680620001146000396000f3fe60806040526004361061007b5760003560e01c80638da5cb5b1161004e5780638da5cb5b1461012d57806397107d6d14610158578063dc42587914610181578063f2fde38b146101aa5761007b565b80631f6c77561461008057806335cb7033146100bd5780635e57966d146100d9578063715018a614610116575b600080fd5b34801561008c57600080fd5b506100a760048036038101906100a291906121c6565b6101d3565b6040516100b49190612de8565b60405180910390f35b6100d760048036038101906100d29190612231565b610623565b005b3480156100e557600080fd5b5061010060048036038101906100fb9190612174565b610943565b60405161010d9190612de8565b60405180910390f35b34801561012257600080fd5b5061012b610974565b005b34801561013957600080fd5b506101426109fc565b60405161014f9190612bc3565b60405180910390f35b34801561016457600080fd5b5061017f600480360381019061017a9190612174565b610a25565b005b34801561018d57600080fd5b506101a860048036038101906101a39190612207565b610ae5565b005b3480156101b657600080fd5b506101d160048036038101906101cc9190612174565b610b88565b005b606060006040518060400160405280601081526020017f3031323334353637383961626364656600000000000000000000000000000000815250905060006002845161021f9190613220565b600261022b9190613199565b67ffffffffffffffff81111561026a577f4e487b7100000000000000000000000000000000000000000000000000000000600052604160045260246000fd5b6040519080825280601f01601f19166020018201604052801561029c5781602001600182028036833780820191505090505b5090507f3000000000000000000000000000000000000000000000000000000000000000816000815181106102fa577f4e487b7100000000000000000000000000000000000000000000000000000000600052603260045260246000fd5b60200101907effffffffffffffffffffffffffffffffffffffffffffffffffffffffffffff1916908160001a9053507f780000000000000000000000000000000000000000000000000000000000000081600181518110610384577f4e487b7100000000000000000000000000000000000000000000000000000000600052603260045260246000fd5b60200101907effffffffffffffffffffffffffffffffffffffffffffffffffffffffffffff1916908160001a90535060005b8451811015610618578260048683815181106103fb577f4e487b7100000000000000000000000000000000000000000000000000000000600052603260045260246000fd5b602001015160f81c60f81b7effffffffffffffffffffffffffffffffffffffffffffffffffffffffffffff1916901c60f81c60ff1681518110610467577f4e487b7100000000000000000000000000000000000000000000000000000000600052603260045260246000fd5b602001015160f81c60f81b826002836104809190613220565b600261048c9190613199565b815181106104c3577f4e487b7100000000000000000000000000000000000000000000000000000000600052603260045260246000fd5b60200101907effffffffffffffffffffffffffffffffffffffffffffffffffffffffffffff1916908160001a90535082600f60f81b868381518110610531577f4e487b7100000000000000000000000000000000000000000000000000000000600052603260045260246000fd5b602001015160f81c60f81b1660f81c60ff168151811061057a577f4e487b7100000000000000000000000000000000000000000000000000000000600052603260045260246000fd5b602001015160f81c60f81b826002836105939190613220565b600361059f9190613199565b815181106105d6577f4e487b7100000000000000000000000000000000000000000000000000000000600052603260045260246000fd5b60200101907effffffffffffffffffffffffffffffffffffffffffffffffffffffffffffff1916908160001a9053508080610610906133be565b9150506103b6565b508092505050919050565b6000600181111561065d577f4e487b7100000000000000000000000000000000000000000000000000000000600052602160045260246000fd5b8460000151600181111561069a577f4e487b7100000000000000000000000000000000000000000000000000000000600052602160045260246000fd5b14801561071a57506001808111156106db577f4e487b7100000000000000000000000000000000000000000000000000000000600052602160045260246000fd5b82600001516001811115610718577f4e487b7100000000000000000000000000000000000000000000000000000000600052602160045260246000fd5b145b610759576040517f08c379a000000000000000000000000000000000000000000000000000000000815260040161075090612e8a565b60405180910390fd5b61076284610c80565b158015610775575061077382610c80565b155b6107b4576040517f08c379a00000000000000000000000000000000000000000000000000000000081526004016107ab90612faa565b60405180910390fd5b3373ffffffffffffffffffffffffffffffffffffffff16846020015173ffffffffffffffffffffffffffffffffffffffff16148061082157503373ffffffffffffffffffffffffffffffffffffffff16826020015173ffffffffffffffffffffffffffffffffffffffff16145b610860576040517f08c379a000000000000000000000000000000000000000000000000000000000815260040161085790612f8a565b60405180910390fd5b61086a8484610cb7565b6108a9576040517f08c379a00000000000000000000000000000000000000000000000000000000081526004016108a090612fea565b60405180910390fd5b6108b38282610cb7565b6108f2576040517f08c379a00000000000000000000000000000000000000000000000000000000081526004016108e99061308a565b60405180910390fd5b6000806108ff8685610d05565b9150915061090c86610ae5565b61091584610ae5565b6109288660200151856020015184610fe3565b61093b8460200151876020015183610fe3565b505050505050565b606061096d826040516020016109599190612b6d565b6040516020818303038152906040526101d3565b9050919050565b61097c61110b565b73ffffffffffffffffffffffffffffffffffffffff1661099a6109fc565b73ffffffffffffffffffffffffffffffffffffffff16146109f0576040517f08c379a00000000000000000000000000000000000000000000000000000000081526004016109e79061302a565b60405180910390fd5b6109fa6000611113565b565b60008060009054906101000a900473ffffffffffffffffffffffffffffffffffffffff16905090565b610a2d61110b565b73ffffffffffffffffffffffffffffffffffffffff16610a4b6109fc565b73ffffffffffffffffffffffffffffffffffffffff1614610aa1576040517f08c379a0000000000000000000000000000000000000000000000000000000008152600401610a989061302a565b60405180910390fd5b80600260006101000a81548173ffffffffffffffffffffffffffffffffffffffff021916908373ffffffffffffffffffffffffffffffffffffffff16021790555050565b6000610af0826111d7565b9050600015156001600083815260200190815260200160002060009054906101000a900460ff16151514610b59576040517f08c379a0000000000000000000000000000000000000000000000000000000008152600401610b50906130ca565b60405180910390fd5b600180600083815260200190815260200160002060006101000a81548160ff0219169083151502179055505050565b610b9061110b565b73ffffffffffffffffffffffffffffffffffffffff16610bae6109fc565b73ffffffffffffffffffffffffffffffffffffffff1614610c04576040517f08c379a0000000000000000000000000000000000000000000000000000000008152600401610bfb9061302a565b60405180910390fd5b600073ffffffffffffffffffffffffffffffffffffffff168173ffffffffffffffffffffffffffffffffffffffff161415610c74576040517f08c379a0000000000000000000000000000000000000000000000000000000008152600401610c6b90612eaa565b60405180910390fd5b610c7d81611113565b50565b600080610c8c836111d7565b90506001600082815260200190815260200160002060009054906101000a900460ff16915050919050565b6000610ccb610cc5846111d7565b83611253565b73ffffffffffffffffffffffffffffffffffffffff16836020015173ffffffffffffffffffffffffffffffffffffffff1614905092915050565b610d0d611dfc565b610d15611dfc565b610d378460400151602001516000015184608001516020015160000151611292565b610d76576040517f08c379a0000000000000000000000000000000000000000000000000000000008152600401610d6d90612e4a565b60405180910390fd5b610d988460800151602001516000015184604001516020015160000151611292565b610dd7576040517f08c379a0000000000000000000000000000000000000000000000000000000008152600401610dce9061306a565b60405180910390fd5b826060015173ffffffffffffffffffffffffffffffffffffffff16846020015173ffffffffffffffffffffffffffffffffffffffff161480610e495750600073ffffffffffffffffffffffffffffffffffffffff16836060015173ffffffffffffffffffffffffffffffffffffffff16145b610e5257600080fd5b836060015173ffffffffffffffffffffffffffffffffffffffff16836020015173ffffffffffffffffffffffffffffffffffffffff161480610ec45750600073ffffffffffffffffffffffffffffffffffffffff16846060015173ffffffffffffffffffffffffffffffffffffffff16145b610ecd57600080fd5b6000610ee785604001518660e0015187610100015161137a565b90506000610f0386608001518760e0015188610100015161137a565b90506000610f1f86604001518760e0015188610100015161137a565b90506000610f3b87608001518860e0015189610100015161137a565b90508060200151846020015114610f87576040517f08c379a0000000000000000000000000000000000000000000000000000000008152600401610f7e90612f0a565b60405180910390fd5b816020015183602001511115610fd2576040517f08c379a0000000000000000000000000000000000000000000000000000000008152600401610fc990612e6a565b60405180910390fd5b838295509550505050509250929050565b6001600481111561101d577f4e487b7100000000000000000000000000000000000000000000000000000000600052602160045260246000fd5b816000015160000151600481111561105e577f4e487b7100000000000000000000000000000000000000000000000000000000600052602160045260246000fd5b14156110745761106f8383836114cc565b611106565b600260009054906101000a900473ffffffffffffffffffffffffffffffffffffffff1673ffffffffffffffffffffffffffffffffffffffff16636fbcc5a58484846040518463ffffffff1660e01b81526004016110d393929190612bde565b600060405180830381600087803b1580156110ed57600080fd5b505af1158015611101573d6000803e3d6000fd5b505050505b505050565b600033905090565b60008060009054906101000a900473ffffffffffffffffffffffffffffffffffffffff169050816000806101000a81548173ffffffffffffffffffffffffffffffffffffffff021916908373ffffffffffffffffffffffffffffffffffffffff1602179055508173ffffffffffffffffffffffffffffffffffffffff168173ffffffffffffffffffffffffffffffffffffffff167f8be0079c531659141344cd1fd0a4f28419497f9722a3daafe3b4186f6b6457e060405160405180910390a35050565b6000816000015182602001516111f084604001516119d4565b846060015161120286608001516119d4565b8660a001518760c001518860e001518961010001518a61012001516040516020016112369a99989796959493929190612d4c565b604051602081830303815290604052805190602001209050919050565b6000806112868460405160200161126a9190612b88565b6040516020818303038152906040528051906020012084611a42565b90508091505092915050565b6000816000015160048111156112d1577f4e487b7100000000000000000000000000000000000000000000000000000000600052602160045260246000fd5b8360000151600481111561130e577f4e487b7100000000000000000000000000000000000000000000000000000000600052602160045260246000fd5b148015611322575081602001518360200151145b80156113615750816040015173ffffffffffffffffffffffffffffffffffffffff16836040015173ffffffffffffffffffffffffffffffffffffffff16145b1561136f5760019050611374565b600090505b92915050565b611382611dfc565b60006040518060400160405280866020015160000151815260200186602001516020015181525090506001808111156113e4577f4e487b7100000000000000000000000000000000000000000000000000000000600052602160045260246000fd5b85600001516001811115611421577f4e487b7100000000000000000000000000000000000000000000000000000000600052602160045260246000fd5b14156114c1578242111561146a576040517f08c379a0000000000000000000000000000000000000000000000000000000008152600401611461906130aa565b60405180910390fd5b60006114a661149761147c4288611af1565b6114928960200151602001518a60400151611af1565b611b07565b6114a18688611af1565b611b1d565b90506114b6826020015182611af1565b826020018181525050505b809150509392505050565b60016004811115611506577f4e487b7100000000000000000000000000000000000000000000000000000000600052602160045260246000fd5b8160000151600001516004811115611547577f4e487b7100000000000000000000000000000000000000000000000000000000600052602160045260246000fd5b1415611614578273ffffffffffffffffffffffffffffffffffffffff163373ffffffffffffffffffffffffffffffffffffffff16146115bb576040517f08c379a00000000000000000000000000000000000000000000000000000000081526004016115b290612eea565b60405180910390fd5b80602001513414611601576040517f08c379a00000000000000000000000000000000000000000000000000000000081526004016115f890612eca565b60405180910390fd5b61160f828260200151611b33565b6119cf565b6002600481111561164e577f4e487b7100000000000000000000000000000000000000000000000000000000600052602160045260246000fd5b816000015160000151600481111561168f577f4e487b7100000000000000000000000000000000000000000000000000000000600052602160045260246000fd5b14156117365780600001516040015173ffffffffffffffffffffffffffffffffffffffff166323b872dd848484602001516040518463ffffffff1660e01b81526004016116de93929190612c15565b602060405180830381600087803b1580156116f857600080fd5b505af115801561170c573d6000803e3d6000fd5b505050506040513d601f19601f82011682018060405250810190611730919061219d565b506119ce565b60036004811115611770577f4e487b7100000000000000000000000000000000000000000000000000000000600052602160045260246000fd5b81600001516000015160048111156117b1577f4e487b7100000000000000000000000000000000000000000000000000000000600052602160045260246000fd5b14156118825760018160200151146117fe576040517f08c379a00000000000000000000000000000000000000000000000000000000081526004016117f59061300a565b60405180910390fd5b80600001516040015173ffffffffffffffffffffffffffffffffffffffff166342842e0e84848460000151602001516040518463ffffffff1660e01b815260040161184b93929190612c15565b600060405180830381600087803b15801561186557600080fd5b505af1158015611879573d6000803e3d6000fd5b505050506119cd565b6004808111156118bb577f4e487b7100000000000000000000000000000000000000000000000000000000600052602160045260246000fd5b81600001516000015160048111156118fc577f4e487b7100000000000000000000000000000000000000000000000000000000600052602160045260246000fd5b141561199157606081600001516040015173ffffffffffffffffffffffffffffffffffffffff1663f242432a85858560000151602001518660200151866040518663ffffffff1660e01b8152600401611959959493929190612c4c565b600060405180830381600087803b15801561197357600080fd5b505af1158015611987573d6000803e3d6000fd5b50505050506119cc565b6040517f08c379a00000000000000000000000000000000000000000000000000000000081526004016119c39061304a565b60405180910390fd5b5b5b5b505050565b600081600001518260200151600001516000015183602001516000015160200151846020015160000151604001518560200151602001518660400151604051602001611a2596959493929190612ceb565b604051602081830303815290604052805190602001209050919050565b6000604182511415611a815760008060006020850151925060408501519150606085015160001a9050611a7786828585611c27565b9350505050611aeb565b604082511415611ab0576000806020840151915060408401519050611aa7858383611db2565b92505050611aeb565b6040517f08c379a0000000000000000000000000000000000000000000000000000000008152600401611ae290612e2a565b60405180910390fd5b92915050565b60008183611aff919061327a565b905092915050565b60008183611b159190613220565b905092915050565b60008183611b2b91906131ef565b905092915050565b80471015611b76576040517f08c379a0000000000000000000000000000000000000000000000000000000008152600401611b6d90612f6a565b60405180910390fd5b60008273ffffffffffffffffffffffffffffffffffffffff1682604051611b9c90612bae565b60006040518083038185875af1925050503d8060008114611bd9576040519150601f19603f3d011682016040523d82523d6000602084013e611bde565b606091505b5050905080611c22576040517f08c379a0000000000000000000000000000000000000000000000000000000008152600401611c1990612f2a565b60405180910390fd5b505050565b60007f7fffffffffffffffffffffffffffffff5d576e7357a4501ddfe92f46681b20a08260001c1115611c8f576040517f08c379a0000000000000000000000000000000000000000000000000000000008152600401611c8690612f4a565b60405180910390fd5b601b8460ff161480611ca45750601c8460ff16145b611ce3576040517f08c379a0000000000000000000000000000000000000000000000000000000008152600401611cda90612fca565b60405180910390fd5b600060018686868660405160008152602001604052604051611d089493929190612ca6565b6020604051602081039080840390855afa158015611d2a573d6000803e3d6000fd5b505050602060405103519050600073ffffffffffffffffffffffffffffffffffffffff168173ffffffffffffffffffffffffffffffffffffffff161415611da6576040517f08c379a0000000000000000000000000000000000000000000000000000000008152600401611d9d90612e0a565b60405180910390fd5b80915050949350505050565b60008060007f7fffffffffffffffffffffffffffffffffffffffffffffffffffffffffffffff84169150601b8460ff1c019050611df186828785611c27565b925050509392505050565b6040518060400160405280611e0f611e1c565b8152602001600081525090565b604051806060016040528060006004811115611e61577f4e487b7100000000000000000000000000000000000000000000000000000000600052602160045260246000fd5b815260200160008152602001600073ffffffffffffffffffffffffffffffffffffffff1681525090565b6000611e9e611e998461311b565b6130ea565b905082815260208101848484011115611eb657600080fd5b611ec184828561337c565b509392505050565b600081359050611ed88161354b565b92915050565b600081519050611eed81613562565b92915050565b600082601f830112611f0457600080fd5b8135611f14848260208601611e8b565b91505092915050565b600081359050611f2c81613579565b92915050565b600081359050611f4181613589565b92915050565b600081359050611f5681613599565b92915050565b600060c08284031215611f6e57600080fd5b611f7860606130ea565b90506000611f8884828501611f32565b6000830152506020611f9c84828501611fbc565b60208301525060a0611fb08482850161215f565b60408301525092915050565b600060808284031215611fce57600080fd5b611fd860406130ea565b90506000611fe884828501612008565b6000830152506060611ffc8482850161215f565b60208301525092915050565b60006060828403121561201a57600080fd5b61202460606130ea565b9050600061203484828501611f1d565b60008301525060206120488482850161215f565b602083015250604061205c84828501611ec9565b60408301525092915050565b6000610280828403121561207b57600080fd5b6120866101406130ea565b9050600061209684828501611f47565b60008301525060206120aa84828501611ec9565b60208301525060406120be84828501611f5c565b6040830152506101006120d384828501611ec9565b6060830152506101206120e884828501611f5c565b6080830152506101e06120fd8482850161215f565b60a08301525061020061211284828501611ec9565b60c0830152506102206121278482850161215f565b60e08301525061024061213c8482850161215f565b610100830152506102606121528482850161215f565b6101208301525092915050565b60008135905061216e816135a9565b92915050565b60006020828403121561218657600080fd5b600061219484828501611ec9565b91505092915050565b6000602082840312156121af57600080fd5b60006121bd84828501611ede565b91505092915050565b6000602082840312156121d857600080fd5b600082013567ffffffffffffffff8111156121f257600080fd5b6121fe84828501611ef3565b91505092915050565b6000610280828403121561221a57600080fd5b600061222884828501612068565b91505092915050565b600080600080610540858703121561224857600080fd5b600061225687828801612068565b94505061028085013567ffffffffffffffff81111561227457600080fd5b61228087828801611ef3565b9350506102a061229287828801612068565b92505061052085013567ffffffffffffffff8111156122b057600080fd5b6122bc87828801611ef3565b91505092959194509250565b6122d1816132ae565b82525050565b6122e0816132ae565b82525050565b6122f76122f2826132ae565b613407565b82525050565b612306816132cc565b82525050565b61231d612318826132cc565b613419565b82525050565b600061232e8261314b565b6123388185613161565b935061234881856020860161338b565b612351816134f1565b840191505092915050565b61236581613346565b82525050565b61237481613346565b82525050565b61238381613358565b82525050565b6123928161336a565b82525050565b60006123a382613156565b6123ad818561317d565b93506123bd81856020860161338b565b6123c6816134f1565b840191505092915050565b60006123de60188361317d565b91507f45434453413a20696e76616c6964207369676e617475726500000000000000006000830152602082019050919050565b600061241e601f8361317d565b91507f45434453413a20696e76616c6964207369676e6174757265206c656e677468006000830152602082019050919050565b600061245e601c8361317d565b91507f53656c6c20617373657420636f6465206973206e6f74206d61746368000000006000830152602082019050919050565b600061249e601c8361318e565b91507f19457468657265756d205369676e6564204d6573736167653a0a3332000000006000830152601c82019050919050565b60006124de601c8361317d565b91507f4275792061737365742076616c7565206973206e6f74206d61746368000000006000830152602082019050919050565b600061251e601a8361317d565b91507f747261646520646972656374696f6e20697320696e76616c69640000000000006000830152602082019050919050565b600061255e60268361317d565b91507f4f776e61626c653a206e6577206f776e657220697320746865207a65726f206160008301527f64647265737300000000000000000000000000000000000000000000000000006020830152604082019050919050565b60006125c460228361317d565b91507f455448203a206d73672e76616c756520213d206261736541737365742e76616c60008301527f75650000000000000000000000000000000000000000000000000000000000006020830152604082019050919050565b600061262a60218361317d565b91507f455448203a206d73672e73656e646572206973206e6f7420746865207061796560008301527f72000000000000000000000000000000000000000000000000000000000000006020830152604082019050919050565b6000612690601d8361317d565b91507f53656c6c2061737365742076616c7565206973206e6f74206d617463680000006000830152602082019050919050565b60006126d0603a8361317d565b91507f416464726573733a20756e61626c6520746f2073656e642076616c75652c207260008301527f6563697069656e74206d617920686176652072657665727465640000000000006020830152604082019050919050565b600061273660228361317d565b91507f45434453413a20696e76616c6964207369676e6174757265202773272076616c60008301527f75650000000000000000000000000000000000000000000000000000000000006020830152604082019050919050565b600061279c601d8361317d565b91507f416464726573733a20696e73756666696369656e742062616c616e63650000006000830152602082019050919050565b60006127dc60158361317d565b91507f4e6f2065786368616e676520617574686f7269747900000000000000000000006000830152602082019050919050565b600061281c60118361317d565b91507f4f726465722069732063616e63656c65640000000000000000000000000000006000830152602082019050919050565b600061285c60228361317d565b91507f45434453413a20696e76616c6964207369676e6174757265202776272076616c60008301527f75650000000000000000000000000000000000000000000000000000000000006020830152604082019050919050565b60006128c260158361317d565b91507f4c656674206f72646572207369676e206572726f7200000000000000000000006000830152602082019050919050565b6000612902601d8361317d565b91507f455243373231203a206261736541737365742e76616c756520213d20310000006000830152602082019050919050565b600061294260208361317d565b91507f4f776e61626c653a2063616c6c6572206973206e6f7420746865206f776e65726000830152602082019050919050565b6000612982600083613172565b9150600082019050919050565b600061299c60208361317d565b91507f6261736541737365742e636f64652e6261736554797065206973206572726f726000830152602082019050919050565b60006129dc601b8361317d565b91507f42757920617373657420636f6465206973206e6f74206d6174636800000000006000830152602082019050919050565b6000612a1c60168361317d565b91507f5269676874206f72646572207369676e206572726f72000000000000000000006000830152602082019050919050565b6000612a5c60178361317d565b91507f747261646520686173206265656e2066696e69736865640000000000000000006000830152602082019050919050565b6000612a9c601b8361317d565b91507f746865206f7264657220686173206265656e2063616e63656c656400000000006000830152602082019050919050565b608082016000820151612ae56000850182612afe565b506020820151612af86060850182612b40565b50505050565b606082016000820151612b14600085018261235c565b506020820151612b276020850182612b40565b506040820151612b3a60408501826122c8565b50505050565b612b498161332f565b82525050565b612b588161332f565b82525050565b612b6781613339565b82525050565b6000612b7982846122e6565b60148201915081905092915050565b6000612b9382612491565b9150612b9f828461230c565b60208201915081905092915050565b6000612bb982612975565b9150819050919050565b6000602082019050612bd860008301846122d7565b92915050565b600060c082019050612bf360008301866122d7565b612c0060208301856122d7565b612c0d6040830184612acf565b949350505050565b6000606082019050612c2a60008301866122d7565b612c3760208301856122d7565b612c446040830184612b4f565b949350505050565b600060a082019050612c6160008301886122d7565b612c6e60208301876122d7565b612c7b6040830186612b4f565b612c886060830185612b4f565b8181036080830152612c9a8184612323565b90509695505050505050565b6000608082019050612cbb60008301876122fd565b612cc86020830186612b5e565b612cd560408301856122fd565b612ce260608301846122fd565b95945050505050565b600060c082019050612d00600083018961237a565b612d0d602083018861236b565b612d1a6040830187612b4f565b612d2760608301866122d7565b612d346080830185612b4f565b612d4160a0830184612b4f565b979650505050505050565b600061014082019050612d62600083018d612389565b612d6f602083018c6122d7565b612d7c604083018b6122fd565b612d89606083018a6122d7565b612d9660808301896122fd565b612da360a0830188612b4f565b612db060c08301876122d7565b612dbd60e0830186612b4f565b612dcb610100830185612b4f565b612dd9610120830184612b4f565b9b9a5050505050505050505050565b60006020820190508181036000830152612e028184612398565b905092915050565b60006020820190508181036000830152612e23816123d1565b9050919050565b60006020820190508181036000830152612e4381612411565b9050919050565b60006020820190508181036000830152612e6381612451565b9050919050565b60006020820190508181036000830152612e83816124d1565b9050919050565b60006020820190508181036000830152612ea381612511565b9050919050565b60006020820190508181036000830152612ec381612551565b9050919050565b60006020820190508181036000830152612ee3816125b7565b9050919050565b60006020820190508181036000830152612f038161261d565b9050919050565b60006020820190508181036000830152612f2381612683565b9050919050565b60006020820190508181036000830152612f43816126c3565b9050919050565b60006020820190508181036000830152612f6381612729565b9050919050565b60006020820190508181036000830152612f838161278f565b9050919050565b60006020820190508181036000830152612fa3816127cf565b9050919050565b60006020820190508181036000830152612fc38161280f565b9050919050565b60006020820190508181036000830152612fe38161284f565b9050919050565b60006020820190508181036000830152613003816128b5565b9050919050565b60006020820190508181036000830152613023816128f5565b9050919050565b6000602082019050818103600083015261304381612935565b9050919050565b600060208201905081810360008301526130638161298f565b9050919050565b60006020820190508181036000830152613083816129cf565b9050919050565b600060208201905081810360008301526130a381612a0f565b9050919050565b600060208201905081810360008301526130c381612a4f565b9050919050565b600060208201905081810360008301526130e381612a8f565b9050919050565b6000604051905081810181811067ffffffffffffffff82111715613111576131106134c2565b5b8060405250919050565b600067ffffffffffffffff821115613136576131356134c2565b5b601f19601f8301169050602081019050919050565b600081519050919050565b600081519050919050565b600082825260208201905092915050565b600081905092915050565b600082825260208201905092915050565b600081905092915050565b60006131a48261332f565b91506131af8361332f565b9250827fffffffffffffffffffffffffffffffffffffffffffffffffffffffffffffffff038211156131e4576131e3613435565b5b828201905092915050565b60006131fa8261332f565b91506132058361332f565b92508261321557613214613464565b5b828204905092915050565b600061322b8261332f565b91506132368361332f565b9250817fffffffffffffffffffffffffffffffffffffffffffffffffffffffffffffffff048311821515161561326f5761326e613435565b5b828202905092915050565b60006132858261332f565b91506132908361332f565b9250828210156132a3576132a2613435565b5b828203905092915050565b60006132b98261330f565b9050919050565b60008115159050919050565b6000819050919050565b60008190506132e48261350f565b919050565b60008190506132f782613523565b919050565b600081905061330a82613537565b919050565b600073ffffffffffffffffffffffffffffffffffffffff82169050919050565b6000819050919050565b600060ff82169050919050565b6000613351826132d6565b9050919050565b6000613363826132e9565b9050919050565b6000613375826132fc565b9050919050565b82818337600083830152505050565b60005b838110156133a957808201518184015260208101905061338e565b838111156133b8576000848401525b50505050565b60006133c98261332f565b91507fffffffffffffffffffffffffffffffffffffffffffffffffffffffffffffffff8214156133fc576133fb613435565b5b600182019050919050565b600061341282613423565b9050919050565b6000819050919050565b600061342e82613502565b9050919050565b7f4e487b7100000000000000000000000000000000000000000000000000000000600052601160045260246000fd5b7f4e487b7100000000000000000000000000000000000000000000000000000000600052601260045260246000fd5b7f4e487b7100000000000000000000000000000000000000000000000000000000600052602160045260246000fd5b7f4e487b7100000000000000000000000000000000000000000000000000000000600052604160045260246000fd5b6000601f19601f8301169050919050565b60008160601b9050919050565b600581106135205761351f613493565b5b50565b6002811061353457613533613493565b5b50565b6002811061354857613547613493565b5b50565b613554816132ae565b811461355f57600080fd5b50565b61356b816132c0565b811461357657600080fd5b50565b6005811061358657600080fd5b50565b6002811061359657600080fd5b50565b600281106135a657600080fd5b50565b6135b28161332f565b81146135bd57600080fd5b5056fea264697066735822122054f0fe7979330de38e052a34577cad728f9207d6e43f9ec76cafba6bb4ba9e7b64736f6c63430008000033",
  "linkReferences": {},
  "deployedLinkReferences": {}
}