{
  "_format": "hh-sol-artifact-1",
  "contractName": "TransferProxy",
  "sourceName": "contracts/TransferProxy.sol",
  "abi": [
    {
      "anonymous": false,
      "inputs": [
        {
          "indexed": true,
          "internalType": "address",
          "name": "previousOwner",
          "type": "address"
        },
        {
          "indexed": true,
          "internalType": "address",
          "name": "newOwner",
          "type": "address"
        }
      ],
      "name": "OwnershipTransferred",
      "type": "event"
    },
    {
      "inputs": [],
      "name": "accessAddr",
      "outputs": [
        {
          "internalType": "address",
          "name": "",
          "type": "address"
        }
      ],
      "stateMutability": "view",
      "type": "function"
    },
    {
      "inputs": [],
      "name": "owner",
      "outputs": [
        {
          "internalType": "address",
          "name": "",
          "type": "address"
        }
      ],
      "stateMutability": "view",
      "type": "function"
    },
    {
      "inputs": [],
      "name": "renounceOwnership",
      "outputs": [],
      "stateMutability": "nonpayable",
      "type": "function"
    },
    {
      "inputs": [
        {
          "internalType": "address",
          "name": "addr",
          "type": "address"
        }
      ],
      "name": "setAccessible",
      "outputs": [],
      "stateMutability": "nonpayable",
      "type": "function"
    },
    {
      "inputs": [
        {
          "internalType": "address",
          "name": "from",
          "type": "address"
        },
        {
          "internalType": "address",
          "name": "to",
          "type": "address"
        },
        {
          "components": [
            {
              "components": [
                {
                  "internalType": "enum LibAsset.AssetType",
                  "name": "baseType",
                  "type": "uint8"
                },
                {
                  "internalType": "uint256",
                  "name": "extraType",
                  "type": "uint256"
                },
                {
                  "internalType": "address",
                  "name": "contractAddr",
                  "type": "address"
                }
              ],
              "internalType": "struct LibAsset.Code",
              "name": "code",
              "type": "tuple"
            },
            {
              "internalType": "uint256",
              "name": "value",
              "type": "uint256"
            }
          ],
          "internalType": "struct LibAsset.BaseAsset",
          "name": "baseAsset",
          "type": "tuple"
        }
      ],
      "name": "transferFrom",
      "outputs": [],
      "stateMutability": "nonpayable",
      "type": "function"
    },
    {
      "inputs": [
        {
          "internalType": "address",
          "name": "newOwner",
          "type": "address"
        }
      ],
      "name": "transferOwnership",
      "outputs": [],
      "stateMutability": "nonpayable",
      "type": "function"
    }
  ],
  "bytecode": "0x608060405234801561001057600080fd5b5061002d61002261003260201b60201c565b61003a60201b60201c565b6100fe565b600033905090565b60008060009054906101000a900473ffffffffffffffffffffffffffffffffffffffff169050816000806101000a81548173ffffffffffffffffffffffffffffffffffffffff021916908373ffffffffffffffffffffffffffffffffffffffff1602179055508173ffffffffffffffffffffffffffffffffffffffff168173ffffffffffffffffffffffffffffffffffffffff167f8be0079c531659141344cd1fd0a4f28419497f9722a3daafe3b4186f6b6457e060405160405180910390a35050565b6113728061010d6000396000f3fe608060405234801561001057600080fd5b50600436106100625760003560e01c80636fbcc5a514610067578063715018a614610083578063794ae4d11461008d5780638da5cb5b146100a9578063bcd4c0eb146100c7578063f2fde38b146100e5575b600080fd5b610081600480360381019061007c9190610c21565b610101565b005b61008b6101a1565b005b6100a760048036038101906100a29190610bf8565b610229565b005b6100b16102e9565b6040516100be9190610ff7565b60405180910390f35b6100cf610312565b6040516100dc9190610ff7565b60405180910390f35b6100ff60048036038101906100fa9190610bf8565b610338565b005b3373ffffffffffffffffffffffffffffffffffffffff16600160009054906101000a900473ffffffffffffffffffffffffffffffffffffffff1673ffffffffffffffffffffffffffffffffffffffff1614610191576040517f08c379a000000000000000000000000000000000000000000000000000000000815260040161018890611183565b60405180910390fd5b61019c838383610430565b505050565b6101a9610938565b73ffffffffffffffffffffffffffffffffffffffff166101c76102e9565b73ffffffffffffffffffffffffffffffffffffffff161461021d576040517f08c379a000000000000000000000000000000000000000000000000000000000815260040161021490611163565b60405180910390fd5b6102276000610940565b565b610231610938565b73ffffffffffffffffffffffffffffffffffffffff1661024f6102e9565b73ffffffffffffffffffffffffffffffffffffffff16146102a5576040517f08c379a000000000000000000000000000000000000000000000000000000000815260040161029c90611163565b60405180910390fd5b80600160006101000a81548173ffffffffffffffffffffffffffffffffffffffff021916908373ffffffffffffffffffffffffffffffffffffffff16021790555050565b60008060009054906101000a900473ffffffffffffffffffffffffffffffffffffffff16905090565b600160009054906101000a900473ffffffffffffffffffffffffffffffffffffffff1681565b610340610938565b73ffffffffffffffffffffffffffffffffffffffff1661035e6102e9565b73ffffffffffffffffffffffffffffffffffffffff16146103b4576040517f08c379a00000000000000000000000000000000000000000000000000000000081526004016103ab90611163565b60405180910390fd5b600073ffffffffffffffffffffffffffffffffffffffff168173ffffffffffffffffffffffffffffffffffffffff161415610424576040517f08c379a000000000000000000000000000000000000000000000000000000000815260040161041b906110a3565b60405180910390fd5b61042d81610940565b50565b6001600481111561046a577f4e487b7100000000000000000000000000000000000000000000000000000000600052602160045260246000fd5b81600001516000015160048111156104ab577f4e487b7100000000000000000000000000000000000000000000000000000000600052602160045260246000fd5b1415610578578273ffffffffffffffffffffffffffffffffffffffff163373ffffffffffffffffffffffffffffffffffffffff161461051f576040517f08c379a0000000000000000000000000000000000000000000000000000000008152600401610516906110e3565b60405180910390fd5b80602001513414610565576040517f08c379a000000000000000000000000000000000000000000000000000000000815260040161055c906110c3565b60405180910390fd5b610573828260200151610a04565b610933565b600260048111156105b2577f4e487b7100000000000000000000000000000000000000000000000000000000600052602160045260246000fd5b81600001516000015160048111156105f3577f4e487b7100000000000000000000000000000000000000000000000000000000600052602160045260246000fd5b141561069a5780600001516040015173ffffffffffffffffffffffffffffffffffffffff166323b872dd848484602001516040518463ffffffff1660e01b815260040161064293929190611012565b602060405180830381600087803b15801561065c57600080fd5b505af1158015610670573d6000803e3d6000fd5b505050506040513d601f19601f820116820180604052508101906106949190610c70565b50610932565b600360048111156106d4577f4e487b7100000000000000000000000000000000000000000000000000000000600052602160045260246000fd5b8160000151600001516004811115610715577f4e487b7100000000000000000000000000000000000000000000000000000000600052602160045260246000fd5b14156107e6576001816020015114610762576040517f08c379a000000000000000000000000000000000000000000000000000000000815260040161075990611143565b60405180910390fd5b80600001516040015173ffffffffffffffffffffffffffffffffffffffff166342842e0e84848460000151602001516040518463ffffffff1660e01b81526004016107af93929190611012565b600060405180830381600087803b1580156107c957600080fd5b505af11580156107dd573d6000803e3d6000fd5b50505050610931565b60048081111561081f577f4e487b7100000000000000000000000000000000000000000000000000000000600052602160045260246000fd5b8160000151600001516004811115610860577f4e487b7100000000000000000000000000000000000000000000000000000000600052602160045260246000fd5b14156108f557606081600001516040015173ffffffffffffffffffffffffffffffffffffffff1663f242432a85858560000151602001518660200151866040518663ffffffff1660e01b81526004016108bd959493929190611049565b600060405180830381600087803b1580156108d757600080fd5b505af11580156108eb573d6000803e3d6000fd5b5050505050610930565b6040517f08c379a0000000000000000000000000000000000000000000000000000000008152600401610927906111a3565b60405180910390fd5b5b5b5b505050565b600033905090565b60008060009054906101000a900473ffffffffffffffffffffffffffffffffffffffff169050816000806101000a81548173ffffffffffffffffffffffffffffffffffffffff021916908373ffffffffffffffffffffffffffffffffffffffff1602179055508173ffffffffffffffffffffffffffffffffffffffff168173ffffffffffffffffffffffffffffffffffffffff167f8be0079c531659141344cd1fd0a4f28419497f9722a3daafe3b4186f6b6457e060405160405180910390a35050565b80471015610a47576040517f08c379a0000000000000000000000000000000000000000000000000000000008152600401610a3e90611123565b60405180910390fd5b60008273ffffffffffffffffffffffffffffffffffffffff1682604051610a6d90610fe2565b60006040518083038185875af1925050503d8060008114610aaa576040519150601f19603f3d011682016040523d82523d6000602084013e610aaf565b606091505b5050905080610af3576040517f08c379a0000000000000000000000000000000000000000000000000000000008152600401610aea90611103565b60405180910390fd5b505050565b600081359050610b07816112e7565b92915050565b600081519050610b1c816112fe565b92915050565b600081359050610b3181611315565b92915050565b600060808284031215610b4957600080fd5b610b5360406111c3565b90506000610b6384828501610b83565b6000830152506060610b7784828501610be3565b60208301525092915050565b600060608284031215610b9557600080fd5b610b9f60606111c3565b90506000610baf84828501610b22565b6000830152506020610bc384828501610be3565b6020830152506040610bd784828501610af8565b60408301525092915050565b600081359050610bf281611325565b92915050565b600060208284031215610c0a57600080fd5b6000610c1884828501610af8565b91505092915050565b600080600060c08486031215610c3657600080fd5b6000610c4486828701610af8565b9350506020610c5586828701610af8565b9250506040610c6686828701610b37565b9150509250925092565b600060208284031215610c8257600080fd5b6000610c9084828501610b0d565b91505092915050565b610ca28161122c565b82525050565b6000610cb3826111f4565b610cbd81856111ff565b9350610ccd818560208601611274565b610cd6816112d6565b840191505092915050565b6000610cee60268361121b565b91507f4f776e61626c653a206e6577206f776e657220697320746865207a65726f206160008301527f64647265737300000000000000000000000000000000000000000000000000006020830152604082019050919050565b6000610d5460228361121b565b91507f455448203a206d73672e76616c756520213d206261736541737365742e76616c60008301527f75650000000000000000000000000000000000000000000000000000000000006020830152604082019050919050565b6000610dba60218361121b565b91507f455448203a206d73672e73656e646572206973206e6f7420746865207061796560008301527f72000000000000000000000000000000000000000000000000000000000000006020830152604082019050919050565b6000610e20603a8361121b565b91507f416464726573733a20756e61626c6520746f2073656e642076616c75652c207260008301527f6563697069656e74206d617920686176652072657665727465640000000000006020830152604082019050919050565b6000610e86601d8361121b565b91507f416464726573733a20696e73756666696369656e742062616c616e63650000006000830152602082019050919050565b6000610ec6601d8361121b565b91507f455243373231203a206261736541737365742e76616c756520213d20310000006000830152602082019050919050565b6000610f0660208361121b565b91507f4f776e61626c653a2063616c6c6572206973206e6f7420746865206f776e65726000830152602082019050919050565b6000610f46601c8361121b565b91507f4d73672073656e646572206973206e6f742061636365737369626c65000000006000830152602082019050919050565b6000610f86600083611210565b9150600082019050919050565b6000610fa060208361121b565b91507f6261736541737365742e636f64652e6261736554797065206973206572726f726000830152602082019050919050565b610fdc8161126a565b82525050565b6000610fed82610f79565b9150819050919050565b600060208201905061100c6000830184610c99565b92915050565b60006060820190506110276000830186610c99565b6110346020830185610c99565b6110416040830184610fd3565b949350505050565b600060a08201905061105e6000830188610c99565b61106b6020830187610c99565b6110786040830186610fd3565b6110856060830185610fd3565b81810360808301526110978184610ca8565b90509695505050505050565b600060208201905081810360008301526110bc81610ce1565b9050919050565b600060208201905081810360008301526110dc81610d47565b9050919050565b600060208201905081810360008301526110fc81610dad565b9050919050565b6000602082019050818103600083015261111c81610e13565b9050919050565b6000602082019050818103600083015261113c81610e79565b9050919050565b6000602082019050818103600083015261115c81610eb9565b9050919050565b6000602082019050818103600083015261117c81610ef9565b9050919050565b6000602082019050818103600083015261119c81610f39565b9050919050565b600060208201905081810360008301526111bc81610f93565b9050919050565b6000604051905081810181811067ffffffffffffffff821117156111ea576111e96112a7565b5b8060405250919050565b600081519050919050565b600082825260208201905092915050565b600081905092915050565b600082825260208201905092915050565b60006112378261124a565b9050919050565b60008115159050919050565b600073ffffffffffffffffffffffffffffffffffffffff82169050919050565b6000819050919050565b60005b83811015611292578082015181840152602081019050611277565b838111156112a1576000848401525b50505050565b7f4e487b7100000000000000000000000000000000000000000000000000000000600052604160045260246000fd5b6000601f19601f8301169050919050565b6112f08161122c565b81146112fb57600080fd5b50565b6113078161123e565b811461131257600080fd5b50565b6005811061132257600080fd5b50565b61132e8161126a565b811461133957600080fd5b5056fea26469706673582212207b0fa66b6c13416788688c0f94fa08221da3f9415e88e077855324448a83963d64736f6c63430008000033",
  "linkReferences": {},
  "deployedLinkReferences": {}
}