{
  "_format": "hh-sol-artifact-1",
  "contractName": "ERC1155NFT",
  "sourceName": "contracts/test/ERC1155NFT.sol",
  "abi": [
    {
      "inputs": [],
      "stateMutability": "nonpayable",
      "type": "constructor"
    },
    {
      "anonymous": false,
      "inputs": [
        {
          "indexed": true,
          "internalType": "address",
          "name": "account",
          "type": "address"
        },
        {
          "indexed": true,
          "internalType": "address",
          "name": "operator",
          "type": "address"
        },
        {
          "indexed": false,
          "internalType": "bool",
          "name": "approved",
          "type": "bool"
        }
      ],
      "name": "ApprovalForAll",
      "type": "event"
    },
    {
      "anonymous": false,
      "inputs": [
        {
          "indexed": true,
          "internalType": "address",
          "name": "operator",
          "type": "address"
        },
        {
          "indexed": true,
          "internalType": "address",
          "name": "from",
          "type": "address"
        },
        {
          "indexed": true,
          "internalType": "address",
          "name": "to",
          "type": "address"
        },
        {
          "indexed": false,
          "internalType": "uint256[]",
          "name": "ids",
          "type": "uint256[]"
        },
        {
          "indexed": false,
          "internalType": "uint256[]",
          "name": "values",
          "type": "uint256[]"
        }
      ],
      "name": "TransferBatch",
      "type": "event"
    },
    {
      "anonymous": false,
      "inputs": [
        {
          "indexed": true,
          "internalType": "address",
          "name": "operator",
          "type": "address"
        },
        {
          "indexed": true,
          "internalType": "address",
          "name": "from",
          "type": "address"
        },
        {
          "indexed": true,
          "internalType": "address",
          "name": "to",
          "type": "address"
        },
        {
          "indexed": false,
          "internalType": "uint256",
          "name": "id",
          "type": "uint256"
        },
        {
          "indexed": false,
          "internalType": "uint256",
          "name": "value",
          "type": "uint256"
        }
      ],
      "name": "TransferSingle",
      "type": "event"
    },
    {
      "anonymous": false,
      "inputs": [
        {
          "indexed": false,
          "internalType": "string",
          "name": "value",
          "type": "string"
        },
        {
          "indexed": true,
          "internalType": "uint256",
          "name": "id",
          "type": "uint256"
        }
      ],
      "name": "URI",
      "type": "event"
    },
    {
      "inputs": [
        {
          "internalType": "address",
          "name": "account",
          "type": "address"
        },
        {
          "internalType": "uint256",
          "name": "amount",
          "type": "uint256"
        }
      ],
      "name": "awardItem",
      "outputs": [
        {
          "internalType": "uint256",
          "name": "",
          "type": "uint256"
        }
      ],
      "stateMutability": "nonpayable",
      "type": "function"
    },
    {
      "inputs": [
        {
          "internalType": "address",
          "name": "account",
          "type": "address"
        },
        {
          "internalType": "uint256",
          "name": "id",
          "type": "uint256"
        }
      ],
      "name": "balanceOf",
      "outputs": [
        {
          "internalType": "uint256",
          "name": "",
          "type": "uint256"
        }
      ],
      "stateMutability": "view",
      "type": "function"
    },
    {
      "inputs": [
        {
          "internalType": "address[]",
          "name": "accounts",
          "type": "address[]"
        },
        {
          "internalType": "uint256[]",
          "name": "ids",
          "type": "uint256[]"
        }
      ],
      "name": "balanceOfBatch",
      "outputs": [
        {
          "internalType": "uint256[]",
          "name": "",
          "type": "uint256[]"
        }
      ],
      "stateMutability": "view",
      "type": "function"
    },
    {
      "inputs": [
        {
          "internalType": "address",
          "name": "account",
          "type": "address"
        },
        {
          "internalType": "address",
          "name": "operator",
          "type": "address"
        }
      ],
      "name": "isApprovedForAll",
      "outputs": [
        {
          "internalType": "bool",
          "name": "",
          "type": "bool"
        }
      ],
      "stateMutability": "view",
      "type": "function"
    },
    {
      "inputs": [
        {
          "internalType": "address",
          "name": "from",
          "type": "address"
        },
        {
          "internalType": "address",
          "name": "to",
          "type": "address"
        },
        {
          "internalType": "uint256[]",
          "name": "ids",
          "type": "uint256[]"
        },
        {
          "internalType": "uint256[]",
          "name": "amounts",
          "type": "uint256[]"
        },
        {
          "internalType": "bytes",
          "name": "data",
          "type": "bytes"
        }
      ],
      "name": "safeBatchTransferFrom",
      "outputs": [],
      "stateMutability": "nonpayable",
      "type": "function"
    },
    {
      "inputs": [
        {
          "internalType": "address",
          "name": "from",
          "type": "address"
        },
        {
          "internalType": "address",
          "name": "to",
          "type": "address"
        },
        {
          "internalType": "uint256",
          "name": "id",
          "type": "uint256"
        },
        {
          "internalType": "uint256",
          "name": "amount",
          "type": "uint256"
        },
        {
          "internalType": "bytes",
          "name": "data",
          "type": "bytes"
        }
      ],
      "name": "safeTransferFrom",
      "outputs": [],
      "stateMutability": "nonpayable",
      "type": "function"
    },
    {
      "inputs": [
        {
          "internalType": "address",
          "name": "operator",
          "type": "address"
        },
        {
          "internalType": "bool",
          "name": "approved",
          "type": "bool"
        }
      ],
      "name": "setApprovalForAll",
      "outputs": [],
      "stateMutability": "nonpayable",
      "type": "function"
    },
    {
      "inputs": [
        {
          "internalType": "bytes4",
          "name": "interfaceId",
          "type": "bytes4"
        }
      ],
      "name": "supportsInterface",
      "outputs": [
        {
          "internalType": "bool",
          "name": "",
          "type": "bool"
        }
      ],
      "stateMutability": "view",
      "type": "function"
    },
    {
      "inputs": [
        {
          "internalType": "uint256",
          "name": "",
          "type": "uint256"
        }
      ],
      "name": "uri",
      "outputs": [
        {
          "internalType": "string",
          "name": "",
          "type": "string"
        }
      ],
      "stateMutability": "view",
      "type": "function"
    }
  ],
  "bytecode": "0x60806040523480156200001157600080fd5b506040518060400160405280600881526020017f546573744974656d00000000000000000000000000000000000000000000000081525062000059816200006060201b60201c565b5062000191565b8060029080519060200190620000789291906200007c565b5050565b8280546200008a906200012c565b90600052602060002090601f016020900481019282620000ae5760008555620000fa565b82601f10620000c957805160ff1916838001178555620000fa565b82800160010185558215620000fa579182015b82811115620000f9578251825591602001919060010190620000dc565b5b5090506200010991906200010d565b5090565b5b80821115620001285760008160009055506001016200010e565b5090565b600060028204905060018216806200014557607f821691505b602082108114156200015c576200015b62000162565b5b50919050565b7f4e487b7100000000000000000000000000000000000000000000000000000000600052602260045260246000fd5b61282080620001a16000396000f3fe608060405234801561001057600080fd5b50600436106100925760003560e01c80632eb2c2d6116100665780632eb2c2d6146101575780634e1273f414610173578063a22cb465146101a3578063e985e9c5146101bf578063f242432a146101ef57610092565b8062fdd58e1461009757806301ffc9a7146100c75780630e89341c146100f7578063144c9d4c14610127575b600080fd5b6100b160048036038101906100ac91906119d7565b61020b565b6040516100be9190612338565b60405180910390f35b6100e160048036038101906100dc9190611a7f565b6102d4565b6040516100ee919061219b565b60405180910390f35b610111600480360381019061010c9190611ad1565b6103b6565b60405161011e91906121b6565b60405180910390f35b610141600480360381019061013c91906119d7565b61044a565b60405161014e9190612338565b60405180910390f35b610171600480360381019061016c919061184d565b61047d565b005b61018d60048036038101906101889190611a13565b61051e565b60405161019a9190612142565b60405180910390f35b6101bd60048036038101906101b8919061199b565b6106cf565b005b6101d960048036038101906101d49190611811565b610850565b6040516101e6919061219b565b60405180910390f35b6102096004803603810190610204919061190c565b6108e4565b005b60008073ffffffffffffffffffffffffffffffffffffffff168373ffffffffffffffffffffffffffffffffffffffff16141561027c576040517f08c379a000000000000000000000000000000000000000000000000000000000815260040161027390612218565b60405180910390fd5b60008083815260200190815260200160002060008473ffffffffffffffffffffffffffffffffffffffff1673ffffffffffffffffffffffffffffffffffffffff16815260200190815260200160002054905092915050565b60007fd9b67a26000000000000000000000000000000000000000000000000000000007bffffffffffffffffffffffffffffffffffffffffffffffffffffffff1916827bffffffffffffffffffffffffffffffffffffffffffffffffffffffff1916148061039f57507f0e89341c000000000000000000000000000000000000000000000000000000007bffffffffffffffffffffffffffffffffffffffffffffffffffffffff1916827bffffffffffffffffffffffffffffffffffffffffffffffffffffffff1916145b806103af57506103ae82610985565b5b9050919050565b6060600280546103c5906125b2565b80601f01602080910402602001604051908101604052809291908181526020018280546103f1906125b2565b801561043e5780601f106104135761010080835404028352916020019161043e565b820191906000526020600020905b81548152906001019060200180831161042157829003601f168201915b50505050509050919050565b600061045660036109ef565b606060006104646003610a05565b905061047285828685610a13565b809250505092915050565b610485610ba9565b73ffffffffffffffffffffffffffffffffffffffff168573ffffffffffffffffffffffffffffffffffffffff1614806104cb57506104ca856104c5610ba9565b610850565b5b61050a576040517f08c379a000000000000000000000000000000000000000000000000000000000815260040161050190612278565b60405180910390fd5b6105178585858585610bb1565b5050505050565b60608151835114610564576040517f08c379a000000000000000000000000000000000000000000000000000000000815260040161055b906122d8565b60405180910390fd5b6000835167ffffffffffffffff8111156105a7577f4e487b7100000000000000000000000000000000000000000000000000000000600052604160045260246000fd5b6040519080825280602002602001820160405280156105d55781602001602082028036833780820191505090505b50905060005b84518110156106c45761066e858281518110610620577f4e487b7100000000000000000000000000000000000000000000000000000000600052603260045260246000fd5b6020026020010151858381518110610661577f4e487b7100000000000000000000000000000000000000000000000000000000600052603260045260246000fd5b602002602001015161020b565b8282815181106106a7577f4e487b7100000000000000000000000000000000000000000000000000000000600052603260045260246000fd5b602002602001018181525050806106bd906125e4565b90506105db565b508091505092915050565b8173ffffffffffffffffffffffffffffffffffffffff166106ee610ba9565b73ffffffffffffffffffffffffffffffffffffffff161415610745576040517f08c379a000000000000000000000000000000000000000000000000000000000815260040161073c906122b8565b60405180910390fd5b8060016000610752610ba9565b73ffffffffffffffffffffffffffffffffffffffff1673ffffffffffffffffffffffffffffffffffffffff16815260200190815260200160002060008473ffffffffffffffffffffffffffffffffffffffff1673ffffffffffffffffffffffffffffffffffffffff16815260200190815260200160002060006101000a81548160ff0219169083151502179055508173ffffffffffffffffffffffffffffffffffffffff166107ff610ba9565b73ffffffffffffffffffffffffffffffffffffffff167f17307eab39ab6107e8899845ad3d59bd9653f200f220920489ca2b5937696c3183604051610844919061219b565b60405180910390a35050565b6000600160008473ffffffffffffffffffffffffffffffffffffffff1673ffffffffffffffffffffffffffffffffffffffff16815260200190815260200160002060008373ffffffffffffffffffffffffffffffffffffffff1673ffffffffffffffffffffffffffffffffffffffff16815260200190815260200160002060009054906101000a900460ff16905092915050565b6108ec610ba9565b73ffffffffffffffffffffffffffffffffffffffff168573ffffffffffffffffffffffffffffffffffffffff16148061093257506109318561092c610ba9565b610850565b5b610971576040517f08c379a000000000000000000000000000000000000000000000000000000000815260040161096890612238565b60405180910390fd5b61097e8585858585610f11565b5050505050565b60007f01ffc9a7000000000000000000000000000000000000000000000000000000007bffffffffffffffffffffffffffffffffffffffffffffffffffffffff1916827bffffffffffffffffffffffffffffffffffffffffffffffffffffffff1916149050919050565b6001816000016000828254019250508190555050565b600081600001549050919050565b600073ffffffffffffffffffffffffffffffffffffffff168473ffffffffffffffffffffffffffffffffffffffff161415610a83576040517f08c379a0000000000000000000000000000000000000000000000000000000008152600401610a7a90612318565b60405180910390fd5b6000610a8d610ba9565b9050610aae81600087610a9f88611193565b610aa888611193565b87611259565b8260008086815260200190815260200160002060008773ffffffffffffffffffffffffffffffffffffffff1673ffffffffffffffffffffffffffffffffffffffff1681526020019081526020016000206000828254610b0d91906124a6565b925050819055508473ffffffffffffffffffffffffffffffffffffffff16600073ffffffffffffffffffffffffffffffffffffffff168273ffffffffffffffffffffffffffffffffffffffff167fc3d58168c5ae7397731d063d5bbf3d657854427343f4c083240f7aacaa2d0f628787604051610b8b929190612353565b60405180910390a4610ba281600087878787611261565b5050505050565b600033905090565b8151835114610bf5576040517f08c379a0000000000000000000000000000000000000000000000000000000008152600401610bec906122f8565b60405180910390fd5b600073ffffffffffffffffffffffffffffffffffffffff168473ffffffffffffffffffffffffffffffffffffffff161415610c65576040517f08c379a0000000000000000000000000000000000000000000000000000000008152600401610c5c90612258565b60405180910390fd5b6000610c6f610ba9565b9050610c7f818787878787611259565b60005b8451811015610e7c576000858281518110610cc6577f4e487b7100000000000000000000000000000000000000000000000000000000600052603260045260246000fd5b602002602001015190506000858381518110610d0b577f4e487b7100000000000000000000000000000000000000000000000000000000600052603260045260246000fd5b60200260200101519050600080600084815260200190815260200160002060008b73ffffffffffffffffffffffffffffffffffffffff1673ffffffffffffffffffffffffffffffffffffffff16815260200190815260200160002054905081811015610dac576040517f08c379a0000000000000000000000000000000000000000000000000000000008152600401610da390612298565b60405180910390fd5b81810360008085815260200190815260200160002060008c73ffffffffffffffffffffffffffffffffffffffff1673ffffffffffffffffffffffffffffffffffffffff168152602001908152602001600020819055508160008085815260200190815260200160002060008b73ffffffffffffffffffffffffffffffffffffffff1673ffffffffffffffffffffffffffffffffffffffff1681526020019081526020016000206000828254610e6191906124a6565b9250508190555050505080610e75906125e4565b9050610c82565b508473ffffffffffffffffffffffffffffffffffffffff168673ffffffffffffffffffffffffffffffffffffffff168273ffffffffffffffffffffffffffffffffffffffff167f4a39dc06d4c0dbc64b70af90fd698a233a518aa5d07e595d983b8c0526c8f7fb8787604051610ef3929190612164565b60405180910390a4610f09818787878787611431565b505050505050565b600073ffffffffffffffffffffffffffffffffffffffff168473ffffffffffffffffffffffffffffffffffffffff161415610f81576040517f08c379a0000000000000000000000000000000000000000000000000000000008152600401610f7890612258565b60405180910390fd5b6000610f8b610ba9565b9050610fab818787610f9c88611193565b610fa588611193565b87611259565b600080600086815260200190815260200160002060008873ffffffffffffffffffffffffffffffffffffffff1673ffffffffffffffffffffffffffffffffffffffff16815260200190815260200160002054905083811015611042576040517f08c379a000000000000000000000000000000000000000000000000000000000815260040161103990612298565b60405180910390fd5b83810360008087815260200190815260200160002060008973ffffffffffffffffffffffffffffffffffffffff1673ffffffffffffffffffffffffffffffffffffffff168152602001908152602001600020819055508360008087815260200190815260200160002060008873ffffffffffffffffffffffffffffffffffffffff1673ffffffffffffffffffffffffffffffffffffffff16815260200190815260200160002060008282546110f791906124a6565b925050819055508573ffffffffffffffffffffffffffffffffffffffff168773ffffffffffffffffffffffffffffffffffffffff168373ffffffffffffffffffffffffffffffffffffffff167fc3d58168c5ae7397731d063d5bbf3d657854427343f4c083240f7aacaa2d0f628888604051611174929190612353565b60405180910390a461118a828888888888611261565b50505050505050565b60606000600167ffffffffffffffff8111156111d8577f4e487b7100000000000000000000000000000000000000000000000000000000600052604160045260246000fd5b6040519080825280602002602001820160405280156112065781602001602082028036833780820191505090505b5090508281600081518110611244577f4e487b7100000000000000000000000000000000000000000000000000000000600052603260045260246000fd5b60200260200101818152505080915050919050565b505050505050565b6112808473ffffffffffffffffffffffffffffffffffffffff16611601565b15611429578373ffffffffffffffffffffffffffffffffffffffff1663f23a6e6187878686866040518663ffffffff1660e01b81526004016112c69594939291906120e8565b602060405180830381600087803b1580156112e057600080fd5b505af192505050801561131157506040513d601f19601f8201168201806040525081019061130e9190611aa8565b60015b6113a05761131d6126d8565b806113285750611365565b806040517f08c379a000000000000000000000000000000000000000000000000000000000815260040161135c91906121b6565b60405180910390fd5b6040517f08c379a0000000000000000000000000000000000000000000000000000000008152600401611397906121d8565b60405180910390fd5b63f23a6e6160e01b7bffffffffffffffffffffffffffffffffffffffffffffffffffffffff1916817bffffffffffffffffffffffffffffffffffffffffffffffffffffffff191614611427576040517f08c379a000000000000000000000000000000000000000000000000000000000815260040161141e906121f8565b60405180910390fd5b505b505050505050565b6114508473ffffffffffffffffffffffffffffffffffffffff16611601565b156115f9578373ffffffffffffffffffffffffffffffffffffffff1663bc197c8187878686866040518663ffffffff1660e01b8152600401611496959493929190612080565b602060405180830381600087803b1580156114b057600080fd5b505af19250505080156114e157506040513d601f19601f820116820180604052508101906114de9190611aa8565b60015b611570576114ed6126d8565b806114f85750611535565b806040517f08c379a000000000000000000000000000000000000000000000000000000000815260040161152c91906121b6565b60405180910390fd5b6040517f08c379a0000000000000000000000000000000000000000000000000000000008152600401611567906121d8565b60405180910390fd5b63bc197c8160e01b7bffffffffffffffffffffffffffffffffffffffffffffffffffffffff1916817bffffffffffffffffffffffffffffffffffffffffffffffffffffffff1916146115f7576040517f08c379a00000000000000000000000000000000000000000000000000000000081526004016115ee906121f8565b60405180910390fd5b505b505050505050565b600080823b905060008111915050919050565b6000611627611622846123ad565b61237c565b9050808382526020820190508285602086028201111561164657600080fd5b60005b85811015611676578161165c888261172a565b845260208401935060208301925050600181019050611649565b5050509392505050565b600061169361168e846123d9565b61237c565b905080838252602082019050828560208602820111156116b257600080fd5b60005b858110156116e257816116c888826117fc565b8452602084019350602083019250506001810190506116b5565b5050509392505050565b60006116ff6116fa84612405565b61237c565b90508281526020810184848401111561171757600080fd5b611722848285612570565b509392505050565b6000813590506117398161278e565b92915050565b600082601f83011261175057600080fd5b8135611760848260208601611614565b91505092915050565b600082601f83011261177a57600080fd5b813561178a848260208601611680565b91505092915050565b6000813590506117a2816127a5565b92915050565b6000813590506117b7816127bc565b92915050565b6000815190506117cc816127bc565b92915050565b600082601f8301126117e357600080fd5b81356117f38482602086016116ec565b91505092915050565b60008135905061180b816127d3565b92915050565b6000806040838503121561182457600080fd5b60006118328582860161172a565b92505060206118438582860161172a565b9150509250929050565b600080600080600060a0868803121561186557600080fd5b60006118738882890161172a565b95505060206118848882890161172a565b945050604086013567ffffffffffffffff8111156118a157600080fd5b6118ad88828901611769565b935050606086013567ffffffffffffffff8111156118ca57600080fd5b6118d688828901611769565b925050608086013567ffffffffffffffff8111156118f357600080fd5b6118ff888289016117d2565b9150509295509295909350565b600080600080600060a0868803121561192457600080fd5b60006119328882890161172a565b95505060206119438882890161172a565b9450506040611954888289016117fc565b9350506060611965888289016117fc565b925050608086013567ffffffffffffffff81111561198257600080fd5b61198e888289016117d2565b9150509295509295909350565b600080604083850312156119ae57600080fd5b60006119bc8582860161172a565b92505060206119cd85828601611793565b9150509250929050565b600080604083850312156119ea57600080fd5b60006119f88582860161172a565b9250506020611a09858286016117fc565b9150509250929050565b60008060408385031215611a2657600080fd5b600083013567ffffffffffffffff811115611a4057600080fd5b611a4c8582860161173f565b925050602083013567ffffffffffffffff811115611a6957600080fd5b611a7585828601611769565b9150509250929050565b600060208284031215611a9157600080fd5b6000611a9f848285016117a8565b91505092915050565b600060208284031215611aba57600080fd5b6000611ac8848285016117bd565b91505092915050565b600060208284031215611ae357600080fd5b6000611af1848285016117fc565b91505092915050565b6000611b068383612062565b60208301905092915050565b611b1b816124fc565b82525050565b6000611b2c82612445565b611b368185612473565b9350611b4183612435565b8060005b83811015611b72578151611b598882611afa565b9750611b6483612466565b925050600181019050611b45565b5085935050505092915050565b611b888161250e565b82525050565b6000611b9982612450565b611ba38185612484565b9350611bb381856020860161257f565b611bbc816126ba565b840191505092915050565b6000611bd28261245b565b611bdc8185612495565b9350611bec81856020860161257f565b611bf5816126ba565b840191505092915050565b6000611c0d603483612495565b91507f455243313135353a207472616e7366657220746f206e6f6e204552433131353560008301527f526563656976657220696d706c656d656e7465720000000000000000000000006020830152604082019050919050565b6000611c73602883612495565b91507f455243313135353a204552433131353552656365697665722072656a6563746560008301527f6420746f6b656e730000000000000000000000000000000000000000000000006020830152604082019050919050565b6000611cd9602b83612495565b91507f455243313135353a2062616c616e636520717565727920666f7220746865207a60008301527f65726f20616464726573730000000000000000000000000000000000000000006020830152604082019050919050565b6000611d3f602983612495565b91507f455243313135353a2063616c6c6572206973206e6f74206f776e6572206e6f7260008301527f20617070726f76656400000000000000000000000000000000000000000000006020830152604082019050919050565b6000611da5602583612495565b91507f455243313135353a207472616e7366657220746f20746865207a65726f20616460008301527f64726573730000000000000000000000000000000000000000000000000000006020830152604082019050919050565b6000611e0b603283612495565b91507f455243313135353a207472616e736665722063616c6c6572206973206e6f742060008301527f6f776e6572206e6f7220617070726f76656400000000000000000000000000006020830152604082019050919050565b6000611e71602a83612495565b91507f455243313135353a20696e73756666696369656e742062616c616e636520666f60008301527f72207472616e73666572000000000000000000000000000000000000000000006020830152604082019050919050565b6000611ed7602983612495565b91507f455243313135353a2073657474696e6720617070726f76616c2073746174757360008301527f20666f722073656c6600000000000000000000000000000000000000000000006020830152604082019050919050565b6000611f3d602983612495565b91507f455243313135353a206163636f756e747320616e6420696473206c656e67746860008301527f206d69736d6174636800000000000000000000000000000000000000000000006020830152604082019050919050565b6000611fa3602883612495565b91507f455243313135353a2069647320616e6420616d6f756e7473206c656e6774682060008301527f6d69736d617463680000000000000000000000000000000000000000000000006020830152604082019050919050565b6000612009602183612495565b91507f455243313135353a206d696e7420746f20746865207a65726f2061646472657360008301527f73000000000000000000000000000000000000000000000000000000000000006020830152604082019050919050565b61206b81612566565b82525050565b61207a81612566565b82525050565b600060a0820190506120956000830188611b12565b6120a26020830187611b12565b81810360408301526120b48186611b21565b905081810360608301526120c88185611b21565b905081810360808301526120dc8184611b8e565b90509695505050505050565b600060a0820190506120fd6000830188611b12565b61210a6020830187611b12565b6121176040830186612071565b6121246060830185612071565b81810360808301526121368184611b8e565b90509695505050505050565b6000602082019050818103600083015261215c8184611b21565b905092915050565b6000604082019050818103600083015261217e8185611b21565b905081810360208301526121928184611b21565b90509392505050565b60006020820190506121b06000830184611b7f565b92915050565b600060208201905081810360008301526121d08184611bc7565b905092915050565b600060208201905081810360008301526121f181611c00565b9050919050565b6000602082019050818103600083015261221181611c66565b9050919050565b6000602082019050818103600083015261223181611ccc565b9050919050565b6000602082019050818103600083015261225181611d32565b9050919050565b6000602082019050818103600083015261227181611d98565b9050919050565b6000602082019050818103600083015261229181611dfe565b9050919050565b600060208201905081810360008301526122b181611e64565b9050919050565b600060208201905081810360008301526122d181611eca565b9050919050565b600060208201905081810360008301526122f181611f30565b9050919050565b6000602082019050818103600083015261231181611f96565b9050919050565b6000602082019050818103600083015261233181611ffc565b9050919050565b600060208201905061234d6000830184612071565b92915050565b60006040820190506123686000830185612071565b6123756020830184612071565b9392505050565b6000604051905081810181811067ffffffffffffffff821117156123a3576123a261268b565b5b8060405250919050565b600067ffffffffffffffff8211156123c8576123c761268b565b5b602082029050602081019050919050565b600067ffffffffffffffff8211156123f4576123f361268b565b5b602082029050602081019050919050565b600067ffffffffffffffff8211156124205761241f61268b565b5b601f19601f8301169050602081019050919050565b6000819050602082019050919050565b600081519050919050565b600081519050919050565b600081519050919050565b6000602082019050919050565b600082825260208201905092915050565b600082825260208201905092915050565b600082825260208201905092915050565b60006124b182612566565b91506124bc83612566565b9250827fffffffffffffffffffffffffffffffffffffffffffffffffffffffffffffffff038211156124f1576124f061262d565b5b828201905092915050565b600061250782612546565b9050919050565b60008115159050919050565b60007fffffffff0000000000000000000000000000000000000000000000000000000082169050919050565b600073ffffffffffffffffffffffffffffffffffffffff82169050919050565b6000819050919050565b82818337600083830152505050565b60005b8381101561259d578082015181840152602081019050612582565b838111156125ac576000848401525b50505050565b600060028204905060018216806125ca57607f821691505b602082108114156125de576125dd61265c565b5b50919050565b60006125ef82612566565b91507fffffffffffffffffffffffffffffffffffffffffffffffffffffffffffffffff8214156126225761262161262d565b5b600182019050919050565b7f4e487b7100000000000000000000000000000000000000000000000000000000600052601160045260246000fd5b7f4e487b7100000000000000000000000000000000000000000000000000000000600052602260045260246000fd5b7f4e487b7100000000000000000000000000000000000000000000000000000000600052604160045260246000fd5b6000601f19601f8301169050919050565b60008160e01c9050919050565b600060443d10156126e85761278b565b60046000803e6126f96000516126cb565b6308c379a0811461270a575061278b565b60405160043d036004823e80513d602482011167ffffffffffffffff821117156127365750505061278b565b808201805167ffffffffffffffff81111561275557505050505061278b565b8060208301013d85018111156127705750505050505061278b565b612779826126ba565b60208401016040528296505050505050505b90565b612797816124fc565b81146127a257600080fd5b50565b6127ae8161250e565b81146127b957600080fd5b50565b6127c58161251a565b81146127d057600080fd5b50565b6127dc81612566565b81146127e757600080fd5b5056fea2646970667358221220a5af443555f5f800429b1773d943c45f403dd27c1aa51c3aeee203feff07eace64736f6c63430008000033",
  "linkReferences": {},
  "deployedLinkReferences": {}
}